{
  "contractName": "VonTokenSale",
  "abi": [
    {
      "inputs": [
        {
          "internalType": "contract VonToken",
          "name": "_tokenContract",
          "type": "address"
        },
        {
          "internalType": "uint256",
          "name": "_tokenPrice",
          "type": "uint256"
        }
      ],
      "payable": false,
      "stateMutability": "nonpayable",
      "type": "constructor"
    },
    {
      "anonymous": false,
      "inputs": [
        {
          "indexed": false,
          "internalType": "address",
          "name": "_buyer",
          "type": "address"
        },
        {
          "indexed": false,
          "internalType": "uint256",
          "name": "_amount",
          "type": "uint256"
        }
      ],
      "name": "Sell",
      "type": "event"
    },
    {
      "constant": true,
      "inputs": [],
      "name": "tokenContract",
      "outputs": [
        {
          "internalType": "contract VonToken",
          "name": "",
          "type": "address"
        }
      ],
      "payable": false,
      "stateMutability": "view",
      "type": "function"
    },
    {
      "constant": true,
      "inputs": [],
      "name": "tokenPrice",
      "outputs": [
        {
          "internalType": "uint256",
          "name": "",
          "type": "uint256"
        }
      ],
      "payable": false,
      "stateMutability": "view",
      "type": "function"
    },
    {
      "constant": true,
      "inputs": [],
      "name": "tokensSold",
      "outputs": [
        {
          "internalType": "uint256",
          "name": "",
          "type": "uint256"
        }
      ],
      "payable": false,
      "stateMutability": "view",
      "type": "function"
    },
    {
      "constant": false,
      "inputs": [
        {
          "internalType": "uint256",
          "name": "_numberOfTokens",
          "type": "uint256"
        }
      ],
      "name": "buyTokens",
      "outputs": [],
      "payable": true,
      "stateMutability": "payable",
      "type": "function"
    }
  ],
  "bytecode": "0x608060405234801561001057600080fd5b506040516102eb3803806102eb8339818101604052604081101561003357600080fd5b810190808051906020019092919080519060200190929190505050336000806101000a81548173ffffffffffffffffffffffffffffffffffffffff021916908373ffffffffffffffffffffffffffffffffffffffff16021790555081600160006101000a81548173ffffffffffffffffffffffffffffffffffffffff021916908373ffffffffffffffffffffffffffffffffffffffff160217905550806002819055505050610204806100e76000396000f3fe60806040526004361061003f5760003560e01c80633610724e14610044578063518ab2a81461007257806355a373d61461009d5780637ff9b596146100f4575b600080fd5b6100706004803603602081101561005a57600080fd5b810190808035906020019092919050505061011f565b005b34801561007e57600080fd5b5061008761019d565b6040518082815260200191505060405180910390f35b3480156100a957600080fd5b506100b26101a3565b604051808273ffffffffffffffffffffffffffffffffffffffff1673ffffffffffffffffffffffffffffffffffffffff16815260200191505060405180910390f35b34801561010057600080fd5b506101096101c9565b6040518082815260200191505060405180910390f35b806003600082825401925050819055507f5e5e995ce3133561afceaa51a9a154d5db228cd7525d34df5185582c18d3df093382604051808373ffffffffffffffffffffffffffffffffffffffff1673ffffffffffffffffffffffffffffffffffffffff1681526020018281526020019250505060405180910390a150565b60035481565b600160009054906101000a900473ffffffffffffffffffffffffffffffffffffffff1681565b6002548156fea265627a7a72315820bfbfdbdf6c370b3d30bea67ef837877aecc873389040c711d56b046b53eddf8964736f6c63430005100032",
  "source": "// SPDX-License-Identifier: GPL-3.0\npragma solidity >=0.4.22 <0.9.0;\n\nimport \"./VonToken.sol\";\n\ncontract VonTokenSale {\n    address admin;\n    VonToken public tokenContract;\n    uint256 public tokenPrice;\n    uint256 public tokensSold;\n\n    event Sell(address _buyer, uint256 _amount);\n\n    // Assign initial token price and set admin account\n    constructor(VonToken _tokenContract, uint256 _tokenPrice) public {\n        admin = msg.sender;\n        tokenContract = _tokenContract;\n        tokenPrice = _tokenPrice;\n    }\n\n    // User can buy tokens\n    function buyTokens(uint256 _numberOfTokens) public payable {\n        // Increment tokens sold every time tokens are purchased\n        tokensSold += _numberOfTokens;\n\n        // Emit sell event\n        emit Sell(msg.sender, _numberOfTokens);\n    }\n}",
  "sourcePath": "/Users/adam/Desktop/erc20-token/contracts/VonTokenSale.sol",
  "compiler": {
    "name": "solc",
    "version": "0.5.16+commit.9c3226ce.Emscripten.clang"
  },
  "schemaVersion": "3.3.4",
  "updatedAt": "2021-02-21T01:59:12.891Z",
  "networkType": "ethereum",
  "devdoc": {
    "methods": {}
  },
  "userdoc": {
    "methods": {}
  }
}